:020000040806EC
:10E4000000C0032019C807086DC507087BC50708A9
:10E4100083C507088BC5070893C5070869C807089F
:10E420000000000000000000000000009BC507087D
:10E43000A9C5070800000000B1C50708B9C507084D
:10E4400069C8070869C8070869C8070869C80708CC
:10E4500069C8070869C8070869C8070869C80708BC
:10E4600069C8070869C8070869C8070869C80708AC
:10E4700069C8070869C8070869C8070869C807089C
:10E6500010B5054C237833B9044B13B10448AFF31C
:10E6600000800123237010BDDC06002000000000A4
:10E670007883080808B5034B1BB103490348AFF37F
:10E68000008008BD00000000E00600207883080834
:10E6900080B582B000AF786039603B689B00194656
:10E6A000786808F005F800BF0837BD4680BD80B423
:10E6B00083B000AF78607B6801221A607B6800221B
:10E6C0005A607B6800229A6000BF0C37BD465DF837
:10E6D000047B704780B582B000AF78607B68002B08
:10E6E0001AD07B689B68002B0CD07B689A687B688B
:10E6F0005B6819461046FFF7CBFF7B689B6818469E
:10E7000015F024F87B6801221A607B6800225A60A9
:10E710007B6800229A6000E000BF0837BD4680BDDC
:10E7200080B584B000AF786039603B6842F2107207
:10E73000934202D96FF00F0331E07B685B683A685F
:10E740009A422BD90421386814F0BAFF0346FB60C3
:10E75000FB68002B02D16FF00F0320E07B689B6801
:10E76000002B15D07B6899687B685B689B001A4614
:10E77000F86816F08DFF7B689A687B685B681946BD
:10E780001046FFF785FF7B689B68184614F0DEFF94
:10E790007B683A685A607B68FA689A60002318467A
:10E7A0001037BD4680BD80B584B000AF7860396059
:10E7B0003B6842F21072934202D96FF00F0354E0AB
:10E7C0007B685B683A689A4205D339687868FFF7D6
:10E7D000A7FF034649E07B685B68013BFB600AE0FA
:10E7E0007B689A68FB689B0013441B68002B06D16A
:10E7F000FB68013BFB60FB68002BF1D100E000BF30
:10E80000FB680133FB60FA683B689A4201D23B68BF
:10E81000FB600421F86814F053FF0346BB60BB683B
:10E82000002B02D16FF00F031FE07B689B68002B69
:10E8300014D07B689968FB689B001A46B86816F08C
:10E8400027FF7B689A687B685B6819461046FFF76C
:10E850001FFF7B689B68184614F078FF7B68FA6896
:10E860005A607B68BA689A60002318461037BD4624
:10E8700080BD80B582B000AF786039603B68002B06
:10E8800004D17868FFF726FF002319E07B685B68F6
:10E890003A689A420CD17B6898683B689B001A469C
:10E8A000002116F0EDFD7B6801221A60002307E0CD
:10E8B0007868FFF70FFF39687868FFF731FF034684
:10E8C00018460837BD4680BD80B584B000AF78607B
:10E8D00039600023FB607A683B689A4201D10023CB
:10E8E00057E03B685B68002B11D17B685B68002BAD
:10E8F0000BD07B6801221A607B6898687B685B6834
:10E900009B001A46002116F0BBFD002341E03B6846
:10E910005B68013BBB600AE03B689A68BB689B0090
:10E9200013441B68002B06D1BB68013BBB60BB686E
:10E93000002BF1D100E000BFBB680133BB603B6836
:10E940001A687B681A607B685B68BA689A4208D963
:10E95000B9687868FFF7E4FEF860FB68002B0ED01A
:10E9600016E07B689A68BB689B00D0187B685A6881
:10E97000BB68D31A9B001A46002116F081FD7B6804
:10E9800098683B689968BB689B001A4616F080FE41
:10E99000FB6818461037BD4680BD80B586B000AF15
:10E9A0007860396007F10C030C227968184616F07C
:10E9B0006FFE0C223968786816F06AFE07F10C03C6
:10E9C0000C221946386816F063FE00BF1837BD46A2
:10E9D00080BD80B483B000AF78607B68002B01DB22
:10E9E0007B6801E07B685B4218460C37BD465DF8EA
:10E9F000047B704790B585B000AF786039606FF0E8
:10EA00006D03FB6001217868FFF78AFEF860FB6800
:10EA1000002B18D17B6898687B685B689B001A465E
:10EA2000002116F02DFD7B689C683868FFF7D1FF48
:10EA3000034623603B68002B02DA4FF0FF3200E010
:10EA400001227B681A60FB6818461437BD4690BDEA
:10EA500080B483B000AF786039607B685B685B012D
:10EA60003A689A4201D300230DE07B689A683B68BC
:10EA70005B099B0013441A683B6803F01F0322FAEA
:10EA800003F303F0010318460C37BD465DF8047B21
:10EA9000704780B588B000AFF860B9601346FB716D
:10EAA0000023FB61BB685B09BB61BB6803F01F030C
:10EAB0007B61FB79002B05D0FB79012B02D06FF035
:10EAC000030337E0FB685B685B01BA689A420ED3C8
:10EAD000FB79002B01D100232CE0BB6901331946DF
:10EAE000F868FFF71DFEF861FB69002B21D1FB6878
:10EAF0009A68BB699B001344196801227B6902FA7A
:10EB000003F3DA43FB689868BB699B0003440A403F
:10EB10001A60FB689A68BB699B0013441968FA790C
:10EB20007B699A40FB689868BB699B0003440A4371
:10EB30001A60FB6918462037BD4680BD80B487B097
:10EB400000AF78600023FB6000237B611DE00023A1
:10EB50003B6114E07B689A687B699B0013441A68E8
:10EB60003B6922FA03F303F00103002B01D0FB6899
:10EB700011E03B6901333B61FB680133FB603B699A
:10EB80001F2BE7D97B6901337B617B685B687A69FE
:10EB90009A42DCD3002318461C37BD465DF8047B3F
:10EBA000704780B485B000AF78604FF00043BB6021
:10EBB0000023FB600AE07A68BB681340002B09D190
:10EBC000BB685B08BB60FB680133FB60FB681F2B05
:10EBD000F1D900E000BFFB6818461437BD465DF868
:10EBE000047B704780B584B000AF78607B685B6859
:10EBF000002B01D1002325E07B685B68013BFB60B3
:10EC00000AE07B689A68FB689B0013441B68002B32
:10EC100006D1FB68013BFB60FB68002BF1D100E0F3
:10EC200000BF7B689A68FB689B0013441B6818460A
:10EC3000FFF7B7FF0346C3F12003BB60FB685A012F
:10EC4000BB68134418461037BD4680BD80B582B0FE
:10EC500000AF78607868FFF7C5FF03460733DB082D
:10EC600018460837BD4680BD80B485B000AFF86057
:10EC7000B9601346FB71FB68FF221A60FB792F2BEA
:10EC800007D9FB79392B04D8FB79303B1A46FB684E
:10EC90001A60FB79402B07D9FB79462B04D8FB7906
:10ECA000373B1A46FB681A60FB79602B07D9FB7962
:10ECB000662B04D8FB79573B1A46FB681A60FB6841
:10ECC0001A68BB689A4202D36FF0050300E0002384
:10ECD00018461437BD465DF8047B704780B58EB08A
:10ECE00000AFF860B9607A606FF06D037B63012359
:10ECF000BB62BB68012B02DDBB68102B02DD6FF02D
:10ED00000303C1E007F110031846FFF7D0FC7B684E
:10ED10001B78002B04D1F868FFF7DCFC0023B3E07C
:10ED20007B681B782D2B05D17B6801337B604FF00E
:10ED3000FF33BB6278680BF0F3FE7862BB68102B80
:10ED400056D17B6AB3F1804F02D36FF003039BE08F
:10ED50007B6A9B005B097A6A920002F01F02002A1C
:10ED600014BF01220022D2B213443B62396AF86810
:10ED7000FFF7D6FC78637B6B002B7FD10021F8680E
:10ED8000FFF738FE78637B6B002B77D17B6A3B63A0
:10ED90000023FB6228E03B6B013B7A6813441A783E
:10EDA00007F11C03B9681846FFF75EFF78637B6BB9
:10EDB000002B63D1FB689968FB6ADB089A000A4460
:10EDC0001168F869FA6A920002F01C0200FA02F275
:10EDD000F86880689B0003440A431A603B6B013B60
:10EDE0003B63FB6A0133FB623B6B002BD3D136E004
:10EDF0000021F868FFF7FEFD78637B6B002B3DD1A7
:10EE000000233B6327E07A683B6B13441A7807F1D1
:10EE10001C03B9681846FFF727FF78637B6B002B4C
:10EE20002CD1BA6807F11003F968184602F04CFCBF
:10EE300078637B6B002B21D1FB691A4607F1100325
:10EE40001946F86800F092FF78637B6B002B15D1B0
:10EE50003B6B01333B633A6B7B6A9A42D3D3BB6A09
:10EE6000002B0ADAF868FFF7BDFE0346002B04D03A
:10EE7000FB684FF0FF321A6000E000BF07F110039B
:10EE80001846FFF727FC7B6B18463837BD4680BD18
:10EE900080B588B000AFF860B9607A603B606FF011
:10EEA0006D03FB610023BB617B681A683B681344F8
:10EEB0007B61BA693B689A4202D36FF0070342E074
:10EEC00007F11003BA68F968184603F00DF8F86105
:10EED000FB69002B36D1BB68FA680021F86802F0A4
:10EEE00099FFF861FB69002B2CD13B69092B09D8EC
:10EEF0003B69DBB27A69013A7A613033DAB27B6915
:10EF00001A7008E03B69DBB27A69013A7A613733FB
:10EF1000DAB27B691A70BB690133BB610021F86802
:10EF200000F0EEFC0346002BC3D17B681B68BA6976
:10EF30007969184616F08AFA7B681A68BB691A4420
:10EF40007B681A60FB6918462037BD4680BD80B5D6
:10EF50008EB000AFF860B9607A603B6000237B63DD
:10EF6000BB68012B02DDBB68102B02DD6FF00303D1
:10EF7000BAE0F868FFF736FE3863BB68032B02DDA2
:10EF80003B6B5B083B63BB680F2B02DD3B6B5B0895
:10EF90003B633B6B01333B633B6B01333B633B6B3D
:10EFA00001333B633B6B013323F001033B633A685E
:10EFB0003B6B9A4205D23B6C3A6B1A606FF00703C9
:10EFC00092E07B68FB6107F110031846FFF76FFBC7
:10EFD000FB681B68B3F1FF3F07D1FB695A1CFA615C
:10EFE0002D221A703B68013B3B60BB68102B4ED151
:10EFF000FB685B68FB6200237B6244E00423BB6226
:10F000003BE0FB689A68FB6A03F18043013B9B008D
:10F0100013441A68BB6A013BDB0022FA03F3DBB23C
:10F020003B623B6A002B07D17B6A002B04D1FA6A52
:10F03000BB6A1344022B1CD13B6A002B00DA0F334E
:10F040001B111946FB695A1CFA61294A525C1A7055
:10F050003B6A5A4203F00F0302F00F0258BF5342BB
:10F06000FA69511CF9612249CB5C137001237B6260
:10F0700000E000BFBB6A013BBB62BB6A002BC0D192
:10F08000FB6A013BFB62FB6A002BB7D11BE007F177
:10F090001003F9681846FFF717FC78637B6B002BA9
:10F0A0001CD13B69B3F1FF3F01D101233B6107F163
:10F0B0001C0207F110003B68B968FFF7E9FE7863AE
:10F0C0007B6B002B0AD1FB695A1CFA6100221A7073
:10F0D000FA697B68D31A1A463B6C1A6007F1100371
:10F0E0001846FFF7F7FA7B6B18463837BD4680BDE8
:10F0F000E886080880B487B000AF78600023FB6022
:10F100000023FB753B1D3B610EE0FB681B02FB60AF
:10F110003B691B781A46FB681343FB60FB7D013398
:10F12000FB753B6901333B61FB7D032BEDD9FB682C
:10F1300018461C37BD465DF8047B704780B483B029
:10F1400000AF78607B681BBA18460C37BD465DF887
:10F15000047B704780B586B000AF786039603B684B
:10F16000002B26D07B687B613B6803F18043013B29
:10F170009B007A6813443B6116E07B691B68184664
:10F18000FFF7DCFFF8603B691B681846FFF7D6FF06
:10F1900002467B691A603B69FA681A607B6904332E
:10F1A0007B613B69043B3B617A693B699A42E4D9E4
:10F1B00000E000BF1837BD4680BD80B588B000AF05
:10F1C000F860B9607A606FF06D03BB617B689B0883
:10F1D0007A6802F00302002A14BF01220022D2B290
:10F1E00013447B617969F868FFF743FBB861BB6939
:10F1F000002B23D10023FB611BE0FB689A68FB69AD
:10F2000023F0030313441968BA68FB6913441B789D
:10F210001A46FB69DB0003F018039A40FB68986804
:10F22000FB6923F0030303440A431A60FB690133BB
:10F23000FB61FA697B689A42DFD300BFBB6918465D
:10F240002037BD4680BD80B588B000AFF860B9609A
:10F250007A606FF06D03FB617B689B087A6802F04F
:10F260000302002A14BF01220022D2B21344BB6160
:10F27000BB699A007B68D31A7B61B969F868FFF7AC
:10F28000F8FAF861FB69002B15D17B68002B11D0CF
:10F29000FB689B683B613A697B6913447A68B9688B
:10F2A000184616F0F5F9FB689B68B9691846FFF730
:10F2B00051FF00E000BFFB6918462037BD4680BD06
:10F2C00080B588B000AFF860B9607A60FB685B68B1
:10F2D0009B007B617A697B689A4202D27B69FB6101
:10F2E0001EE07B68FB61FB69BB6115E0FB689A6807
:10F2F000BB6923F0030313441A68BB6903F00303DB
:10F30000DB0022FA03F3DBB2002B02D06FF007031D
:10F3100031E0BB690133BB61BA697B699A42E5D3CD
:10F320000023BB6114E0FB689A68BB6923F0030308
:10F3300013441A68BB6903F00303DB0022FA03F1EC
:10F34000BA68BB691344CAB21A70BB690133BB61A6
:10F35000BA69FB699A42E6D37A697B689A4209D214
:10F36000BA687B69D0187A687B69D31A1A4600217B
:10F3700016F086F8002318462037BD4680BD80B5BC
:10F3800088B000AFF860B9607A60FB685B689B008A
:10F390003B613A697B689A4210D23B69FB617A68AB
:10F3A0003B69D31ABA681344BB617A683B69D31AC4
:10F3B0001A460021B86816F063F820E07B68FB610C
:10F3C000BB68BB61FB697B6115E0FB689A687B6980
:10F3D00023F0030313441A687B6903F00303DB0083
:10F3E00022FA03F3DBB2002B02D06FF0070326E012
:10F3F0007B6901337B617A693B699A42E5D30023DB
:10F400007B6117E0FB689A687B6923F00303134470
:10F410001A687B6903F00303DB0022FA03F1FA693F
:10F420007B69D31A013BBA691344CAB21A707B696B
:10F4300001337B617A69FB699A42E3D30023184662
:10F440002037BD4680BD80B588B000AF7860396098
:10F450006FF06D03FB6100237B613B685B093B61DF
:10F460003B6803F01F03FB607868FFF7BBFB0246B5
:10F470003B681344BB617B685B685B01BA699A4275
:10F4800012D9BB695B09BA6902F01F02002A14BFD6
:10F4900001220022D2B2134419467868FFF740F9DE
:10F4A000F861FB69002B6ED10023FB613B69002BE7
:10F4B0002FD07B685B68BB6116E07B689A68B9698E
:10F4C0003B69CB1A03F18043013B9B001A447B68E4
:10F4D0009968BB6903F18043013B9B000B441268B0
:10F4E0001A60BB69013BBB61BA693B699A42E4D8C7
:10F4F0000CE07B689A68BB6903F18043013B9B0089
:10F50000134400221A60BB69013BBB61BB69002B3D
:10F51000EFD1FB68002B35D03B69BB612DE07B68E8
:10F520009A68BB699B0013441A68FB68C3F1200307
:10F5300022FA03F3BB607B689A68BB699B001344A3
:10F5400019687B689A68BB699B001344FA6801FAE2
:10F5500002F21A607B689A68BB699B0013441968C1
:10F560007B689A68BB699B0013447A690A431A60F6
:10F57000BB687B61BB690133BB617B685B68BA694F
:10F580009A42CCD300BFFB6918462037BD4680BDE8
:10F5900080B588B000AF786039600023BB613B68FC
:10F5A0005B097B613B6803F01F033B617B685B6821
:10F5B0007A699A4207D87B685B687A699A4208D16F
:10F5C0003B69002B05D000217868FFF713FA03464A
:10F5D00075E07B69002B2AD00023FB6110E07B687B
:10F5E0009A68F9697B690B449B001A447B689968A7
:10F5F000FB699B000B4412681A60FB690133FB61D5
:10F600007B685A687B69D31AFA699A42E7D309E0A2
:10F610007B689A68FB699B00134400221A60FB69AF
:10F620000133FB617B685B68FA699A42F0D33B69FE
:10F63000002B43D07B685B68FB613CE07B689A6889
:10F64000FB6903F18043013B9B0013441A683B694B
:10F65000C3F1200302FA03F3FB607B689A68FB693D
:10F6600003F18043013B9B00134419687B689A684F
:10F67000FB6903F18043013B9B0013443A6921FA83
:10F6800002F21A607B689A68FB6903F18043013BD0
:10F690009B00134419687B689A68FB6903F18043F7
:10F6A000013B9B001344BA690A431A60FB68BB61C3
:10F6B000FB69013BFB61FB69002BBFD100231846AE
:10F6C0002037BD4680BD80B485B000AF786039601A
:10F6D0007B685B68FB600DE07B689A68FB6803F100
:10F6E0008043013B9B0013441B68002B06D1FB6841
:10F6F000013BFB60FB68002BEED100E000BF3B68E4
:10F700005B68BB600DE03B689A68BB6803F18043AF
:10F71000013B9B0013441B68002B06D1BB68013BD7
:10F72000BB60BB68002BEED100E000BFFB68002B84
:10F7300004D1BB68002B01D1002340E0FA68BB680C
:10F740009A4201D901233AE0BA68FB689A4232D959
:10F750004FF0FF3333E07B689A68FB6803F1804326
:10F76000013B9B0013441A683B689968FB6803F1EE
:10F770008043013B9B000B441B689A4201D9012343
:10F780001DE07B689A68FB6803F18043013B9B00A6
:10F7900013441A683B689968FB6803F18043013B96
:10F7A0009B000B441B689A4202D24FF0FF3306E0E5
:10F7B000FB68013BFB60FB68002BCCD100231846A3
:10F7C0001437BD465DF8047B704780B485B000AF48
:10F7D000786039607B685B68FB600DE07B689A68E5
:10F7E000FB6803F18043013B9B0013441B68002B23
:10F7F00006D1FB68013BFB60FB68002BEED100E00B
:10F8000000BF3B685B68BB600DE03B689A68BB6803
:10F8100003F18043013B9B0013441B68002B06D17E
:10F82000BB68013BBB60BB68002BEED100E000BFB2
:10F83000FB68002B04D1BB68002B01D1002359E0E9
:10F84000FA68BB689A4202D97B681B6852E0BA68C2
:10F85000FB689A4203D93B681B685B424AE07B68BD
:10F860001B68002B05DD3B681B68002B01DA0123B8
:10F8700040E03B681B68002B38DD7B681B68002B71
:10F8800034DA4FF0FF3335E07B689A68FB6803F1A8
:10F890008043013B9B0013441A683B689968FB68EE
:10F8A00003F18043013B9B000B441B689A4202D941
:10F8B0007B681B681EE07B689A68FB6803F18043E5
:10F8C000013B9B0013441A683B689968FB6803F18D
:10F8D0008043013B9B000B441B689A4203D27B6828
:10F8E0001B685B4206E0FB68013BFB60FB68002B8A
:10F8F000CAD1002318461437BD465DF8047B704713
:10F9000080B586B000AF786039603868FFF761F87D
:10F910000346BB603B68002B02DA4FF0FF3300E088
:10F920000123FB6001233B6107F108037B6107F1C1
:10F930000C0319467868FFF748FF03461846183746
:10F94000BD4680BD80B58CB000AFF860B9607A600C
:10F950006FF06D03FB62FA687B689A4205D1BB6861
:10F960007B61FB68BB607B697B60FA68BB689A421D
:10F9700008D0B968F868FEF7A7FFF862FB6A002BA9
:10F9800040F09280FB6801221A607B685B687B62B2
:10F990000DE07B689A687B6A03F18043013B9B0022
:10F9A00013441B68002B06D17B6A013B7B627B6A98
:10F9B000002BEED100E000BF7B6A002B01D10023B9
:10F9C00073E0796AF868FEF7ABFEF862FB6A002B19
:10F9D0006AD17B689B683B62FB689B68FB61002384
:10F9E000BB610023BB622CE03B6A1B683B61FB6987
:10F9F0001A68BB691A44FB691A60FB691B68BA691B
:10FA00009A428CBF01230023DBB2BB61FB691A68F9
:10FA10003B691A44FB691A60FB691B683A699A42A0
:10FA20008CBF01230023DBB21A46BB691344BB61C0
:10FA3000BB6A0133BB623B6A04333B62FB6904333C
:10FA4000FB61BA6A7B6A9A42CED329E0FB685B68A5
:10FA5000BA6A9A420FD3BB6A01331946F868FEF7B7
:10FA60005FFEF862FB6A002B1ED1FB689A68BB6AD6
:10FA70009B001344FB61FB691A68BB691A44FB696C
:10FA80001A60FB691B68BA699A428CBF0123002384
:10FA9000DBB2BB61BB6A0133BB62FB690433FB6150
:10FAA000BB69002BD2D100BFFB6A18463037BD4678
:10FAB00080BD80B489B000AFF860B9607A603B6007
:10FAC0000023BB610023FB6131E0FB699B007A6886
:10FAD00013441B68BA699A428CBF01230023DBB22E
:10FAE0007B61FB699B007A6813441A68BB69D31A6F
:10FAF0003B61FB699B003A6813441B683A699A4270
:10FB000034BF01230023DBB21A467B691344BB6177
:10FB1000FB699B003A6813441A68FB699B00B9684B
:10FB20000B4439698A1A1A60FB690133FB61FA696F
:10FB3000FB689A42C9D3BB6918462437BD465DF8B5
:10FB4000047B704780B588B000AFF860B9607A6018
:10FB50006FF06D03FB617B685B68BB610DE07B68E8
:10FB60009A68BB6903F18043013B9B0013441B6807
:10FB7000002B06D1BB69013BBB61BB69002BEED1F9
:10FB800000E000BFBB685B68BA699A4203D96FF0B6
:10FB90000903FB6174E0BB685B681946F868FEF70F
:10FBA000BFFDF861FB69002B6AD1BB685B68BA696D
:10FBB0009A4215D2BA68FB689A4211D0FB689A68DB
:10FBC000BB699B00D018BB689A68BB699B00D118C1
:10FBD000BB685A68BB69D31A9B001A4615F058FDDA
:10FBE000FB685A68BB685B689A420FD9FB689A68E1
:10FBF000BB685B689B00D018FB685A68BB685B6891
:10FC0000D31A9B001A46002115F03AFCFB6899684C
:10FC1000BB689A687B689B68B869FFF74AFF7861A0
:10FC20007B69002B29D00AE0FB689A68BB699B00BE
:10FC300013441A68013A1A60BB690133BB61FB685F
:10FC40005B68BA699A4207D2FB689A68BB699B00F5
:10FC500013441B68002BE7D0FB685B68BA699A42C3
:10FC600003D16FF00903FB610AE0FB689A68BB6986
:10FC70009B0013441A68013A1A60FB6801221A605B
:10FC8000FB6918462037BD4680BD80B588B000AFFF
:10FC9000F860B9607A603B60BB681B68BB61BB6899
:10FCA0001B687A68126802FB03F33A6802FB03F3ED
:10FCB000002B27DA7968B868FFF705FD78617B6962
:10FCC000002B11DB7A68B968F868FFF73BFFF86131
:10FCD000FB69002B22D17B69002B01D0BB6900E0BE
:10FCE0000123FA68136019E0BA687968F868FFF7C9
:10FCF00029FFF861FB69002B10D1BB695A42FB68F0
:10FD00001A600BE07A68B968F868FFF71BFEF861C3
:10FD1000FB69002B02D1FB68BA691A60FB691846BF
:10FD20002037BD4680BD80B584B000AFF860B960B3
:10FD30007A6001237A68B968F868FFF7A6FF03467E
:10FD400018461037BD4680BD80B584B000AFF8605E
:10FD5000B9607A604FF0FF337A68B968F868FFF7E6
:10FD600094FF034618461037BD4680BD80B588B065
:10FD700000AFF860B9607A607868FEF72AFE034643
:10FD80003B617B68002B02DA4FF0FF3300E0012378
:10FD90007B610123BB6107F11003FB6107F11403D1
:10FDA0001A46B968F868FFF7BEFF034618462037C1
:10FDB000BD4680BD80B588B000AFF860B9607A609C
:10FDC0007868FEF706FE03463B617B68002B02DA8B
:10FDD0004FF0FF3300E001237B610123BB6107F19A
:10FDE0001003FB6107F114031A46B968F868FFF7BE
:10FDF000ABFF034618462037BD4680BD80B49FB098
:10FE000000AFF860B9607A603B6000237B67002335
:10FE10003B6700F049BF3B689BB2FB623B681B0C31
:10FE2000BB62BB681B689BB27B62BB681B681B0C18
:10FE30003B62BB680433BB607B6ABA6A02FB03F3B4
:10FE4000FB617B6AFA6A02FB03F3BB613B6AFA6AF5
:10FE500002FB03F37B613B6ABA6A02FB03F33B617B
:10FE6000FB691B0C3A6913443B617B691B0C3A69C3
:10FE700013443B61FB691B04FB617B691B047B61D1
:10FE8000BA69FB691344BB61BA69FB699A4234BF22
:10FE900001230023DBB21A463B6913443B61BA6974
:10FEA0007B691344BB61BA697B699A4234BF012301
:10FEB0000023DBB21A463B6913443B61BA697B6F8E
:10FEC0001344BB61BA697B6F9A4234BF012300239C
:10FED000DBB21A463B6913443B617B681B68BA6915
:10FEE0001344BB617B681B68BA699A4234BF012323
:10FEF0000023DBB21A463B6913443B613B697B67D5
:10FF00007B681A1D7A60BA691A60BB681B689BB26D
:10FF10007B62BB681B681B0C3B62BB680433BB6025
:10FF20007B6ABA6A02FB03F3FB617B6AFA6A02FB33
:10FF300003F3BB613B6AFA6A02FB03F37B613B6A32
:10FF4000BA6A02FB03F33B61FB691B0C3A69134479
:10FF50003B617B691B0C3A6913443B61FB691B04E1
:10FF6000FB617B691B047B61BA69FB691344BB615C
:10FF7000BA69FB699A4234BF01230023DBB21A46F7
:10FF80003B6913443B61BA697B691344BB61BA693D
:10FF90007B699A4234BF01230023DBB21A463B69D6
:10FFA00013443B61BA697B6F1344BB61BA697B6FD1
:10FFB0009A4234BF01230023DBB21A463B69134443
:10FFC0003B617B681B68BA691344BB617B681B6833
:10FFD000BA699A4234BF01230023DBB21A463B6957
:10FFE00013443B613B697B677B681A1D7A60BA6981
:10FFF0001A60BB681B689BB27B62BB681B681B0CEA
:020000040807EB
:100000003B62BB680433BB607B6ABA6A02FB03F3E2
:10001000FB617B6AFA6A02FB03F3BB613B6AFA6A23
:1000200002FB03F37B613B6ABA6A02FB03F33B61A9
:10003000FB691B0C3A6913443B617B691B0C3A69F1
:1000400013443B61FB691B04FB617B691B047B61FF
:10005000BA69FB691344BB61BA69FB699A4234BF50
:1000600001230023DBB21A463B6913443B61BA69A2
:100070007B691344BB61BA697B699A4234BF01232F
:100080000023DBB21A463B6913443B61BA697B6FBC
:100090001344BB61BA697B6F9A4234BF01230023CA
:1000A000DBB21A463B6913443B617B681B68BA6943
:1000B0001344BB617B681B68BA699A4234BF012351
:1000C0000023DBB21A463B6913443B613B697B6703
:1000D0007B681A1D7A60BA691A60BB681B689BB29C
:1000E0007B62BB681B681B0C3B62BB680433BB6054
:1000F0007B6ABA6A02FB03F3FB617B6AFA6A02FB62
:1001000003F3BB613B6AFA6A02FB03F37B613B6A60
:10011000BA6A02FB03F33B61FB691B0C3A691344A7
:100120003B617B691B0C3A6913443B61FB691B040F
:10013000FB617B691B047B61BA69FB691344BB618A
:10014000BA69FB699A4234BF01230023DBB21A4625
:100150003B6913443B61BA697B691344BB61BA696B
:100160007B699A4234BF01230023DBB21A463B6904
:1001700013443B61BA697B6F1344BB61BA697B6FFF
:100180009A4234BF01230023DBB21A463B69134471
:100190003B617B681B68BA691344BB617B681B6861
:1001A000BA699A4234BF01230023DBB21A463B6985
:1001B00013443B613B697B677B681A1D7A60BA69AF
:1001C0001A60BB681B689BB27B62BB681B681B0C18
:1001D0003B62BB680433BB607B6ABA6A02FB03F311
:1001E000FB617B6AFA6A02FB03F3BB613B6AFA6A52
:1001F00002FB03F37B613B6ABA6A02FB03F33B61D8
:10020000FB691B0C3A6913443B617B691B0C3A691F
:1002100013443B61FB691B04FB617B691B047B612D
:10022000BA69FB691344BB61BA69FB699A4234BF7E
:1002300001230023DBB21A463B6913443B61BA69D0
:100240007B691344BB61BA697B699A4234BF01235D
:100250000023DBB21A463B6913443B61BA697B6FEA
:100260001344BB61BA697B6F9A4234BF01230023F8
:10027000DBB21A463B6913443B617B681B68BA6971
:100280001344BB617B681B68BA699A4234BF01237F
:100290000023DBB21A463B6913443B613B697B6731
:1002A0007B681A1D7A60BA691A60BB681B689BB2CA
:1002B0007B62BB681B681B0C3B62BB680433BB6082
:1002C0007B6ABA6A02FB03F3FB617B6AFA6A02FB90
:1002D00003F3BB613B6AFA6A02FB03F37B613B6A8F
:1002E000BA6A02FB03F33B61FB691B0C3A691344D6
:1002F0003B617B691B0C3A6913443B61FB691B043E
:10030000FB617B691B047B61BA69FB691344BB61B8
:10031000BA69FB699A4234BF01230023DBB21A4653
:100320003B6913443B61BA697B691344BB61BA6999
:100330007B699A4234BF01230023DBB21A463B6932
:1003400013443B61BA697B6F1344BB61BA697B6F2D
:100350009A4234BF01230023DBB21A463B6913449F
:100360003B617B681B68BA691344BB617B681B688F
:10037000BA699A4234BF01230023DBB21A463B69B3
:1003800013443B613B697B677B681A1D7A60BA69DD
:100390001A60BB681B689BB27B62BB681B681B0C46
:1003A0003B62BB680433BB607B6ABA6A02FB03F33F
:1003B000FB617B6AFA6A02FB03F3BB613B6AFA6A80
:1003C00002FB03F37B613B6ABA6A02FB03F33B6106
:1003D000FB691B0C3A6913443B617B691B0C3A694E
:1003E00013443B61FB691B04FB617B691B047B615C
:1003F000BA69FB691344BB61BA69FB699A4234BFAD
:1004000001230023DBB21A463B6913443B61BA69FE
:100410007B691344BB61BA697B699A4234BF01238B
:100420000023DBB21A463B6913443B61BA697B6F18
:100430001344BB61BA697B6F9A4234BF0123002326
:10044000DBB21A463B6913443B617B681B68BA699F
:100450001344BB617B681B68BA699A4234BF0123AD
:100460000023DBB21A463B6913443B613B697B675F
:100470007B681A1D7A60BA691A60BB681B689BB2F8
:100480007B62BB681B681B0C3B62BB680433BB60B0
:100490007B6ABA6A02FB03F3FB617B6AFA6A02FBBE
:1004A00003F3BB613B6AFA6A02FB03F37B613B6ABD
:1004B000BA6A02FB03F33B61FB691B0C3A69134404
:1004C0003B617B691B0C3A6913443B61FB691B046C
:1004D000FB617B691B047B61BA69FB691344BB61E7
:1004E000BA69FB699A4234BF01230023DBB21A4682
:1004F0003B6913443B61BA697B691344BB61BA69C8
:100500007B699A4234BF01230023DBB21A463B6960
:1005100013443B61BA697B6F1344BB61BA697B6F5B
:100520009A4234BF01230023DBB21A463B691344CD
:100530003B617B681B68BA691344BB617B681B68BD
:10054000BA699A4234BF01230023DBB21A463B69E1
:1005500013443B613B697B677B681A1D7A60BA690B
:100560001A60BB681B689BB27B62BB681B681B0C74
:100570003B62BB680433BB607B6ABA6A02FB03F36D
:10058000FB617B6AFA6A02FB03F3BB613B6AFA6AAE
:1005900002FB03F37B613B6ABA6A02FB03F33B6134
:1005A000FB691B0C3A6913443B617B691B0C3A697C
:1005B00013443B61FB691B04FB617B691B047B618A
:1005C000BA69FB691344BB61BA69FB699A4234BFDB
:1005D00001230023DBB21A463B6913443B61BA692D
:1005E0007B691344BB61BA697B699A4234BF0123BA
:1005F0000023DBB21A463B6913443B61BA697B6F47
:100600001344BB61BA697B6F9A4234BF0123002354
:10061000DBB21A463B6913443B617B681B68BA69CD
:100620001344BB617B681B68BA699A4234BF0123DB
:100630000023DBB21A463B6913443B613B697B678D
:100640007B681A1D7A60BA691A60BB681B689BB226
:100650007B62BB681B681B0C3B62BB680433BB60DE
:100660007B6ABA6A02FB03F3FB617B6AFA6A02FBEC
:1006700003F3BB613B6AFA6A02FB03F37B613B6AEB
:10068000BA6A02FB03F33B61FB691B0C3A69134432
:100690003B617B691B0C3A6913443B61FB691B049A
:1006A000FB617B691B047B61BA69FB691344BB6115
:1006B000BA69FB699A4234BF01230023DBB21A46B0
:1006C0003B6913443B61BA697B691344BB61BA69F6
:1006D0007B699A4234BF01230023DBB21A463B698F
:1006E00013443B61BA697B6F1344BB61BA697B6F8A
:1006F0009A4234BF01230023DBB21A463B691344FC
:100700003B617B681B68BA691344BB617B681B68EB
:10071000BA699A4234BF01230023DBB21A463B690F
:1007200013443B613B697B677B681A1D7A60BA6939
:100730001A60BB681B689BB27B62BB681B681B0CA2
:100740003B62BB680433BB607B6ABA6A02FB03F39B
:10075000FB617B6AFA6A02FB03F3BB613B6AFA6ADC
:1007600002FB03F37B613B6ABA6A02FB03F33B6162
:10077000FB691B0C3A6913443B617B691B0C3A69AA
:1007800013443B61FB691B04FB617B691B047B61B8
:10079000BA69FB691344BB61BA69FB699A4234BF09
:1007A00001230023DBB21A463B6913443B61BA695B
:1007B0007B691344BB61BA697B699A4234BF0123E8
:1007C0000023DBB21A463B6913443B61BA697B6F75
:1007D0001344BB61BA697B6F9A4234BF0123002383
:1007E000DBB21A463B6913443B617B681B68BA69FC
:1007F0001344BB617B681B68BA699A4234BF01230A
:100800000023DBB21A463B6913443B613B697B67BB
:100810007B681A1D7A60BA691A60BB681B689BB254
:100820007B62BB681B681B0C3B62BB680433BB600C
:100830007B6ABA6A02FB03F3FB617B6AFA6A02FB1A
:1008400003F3BB613B6AFA6A02FB03F37B613B6A19
:10085000BA6A02FB03F33B61FB691B0C3A69134460
:100860003B617B691B0C3A6913443B61FB691B04C8
:10087000FB617B691B047B61BA69FB691344BB6143
:10088000BA69FB699A4234BF01230023DBB21A46DE
:100890003B6913443B61BA697B691344BB61BA6924
:1008A0007B699A4234BF01230023DBB21A463B69BD
:1008B00013443B61BA697B6F1344BB61BA697B6FB8
:1008C0009A4234BF01230023DBB21A463B6913442A
:1008D0003B617B681B68BA691344BB617B681B681A
:1008E000BA699A4234BF01230023DBB21A463B693E
:1008F00013443B613B697B677B681A1D7A60BA6968
:100900001A60BB681B689BB27B62BB681B681B0CD0
:100910003B62BB680433BB607B6ABA6A02FB03F3C9
:10092000FB617B6AFA6A02FB03F3BB613B6AFA6A0A
:1009300002FB03F37B613B6ABA6A02FB03F33B6190
:10094000FB691B0C3A6913443B617B691B0C3A69D8
:1009500013443B61FB691B04FB617B691B047B61E6
:10096000BA69FB691344BB61BA69FB699A4234BF37
:1009700001230023DBB21A463B6913443B61BA6989
:100980007B691344BB61BA697B699A4234BF012316
:100990000023DBB21A463B6913443B61BA697B6FA3
:1009A0001344BB61BA697B6F9A4234BF01230023B1
:1009B000DBB21A463B6913443B617B681B68BA692A
:1009C0001344BB617B681B68BA699A4234BF012338
:1009D0000023DBB21A463B6913443B613B697B67EA
:1009E0007B681A1D7A60BA691A60BB681B689BB283
:1009F0007B62BB681B681B0C3B62BB680433BB603B
:100A00007B6ABA6A02FB03F3FB617B6AFA6A02FB48
:100A100003F3BB613B6AFA6A02FB03F37B613B6A47
:100A2000BA6A02FB03F33B61FB691B0C3A6913448E
:100A30003B617B691B0C3A6913443B61FB691B04F6
:100A4000FB617B691B047B61BA69FB691344BB6171
:100A5000BA69FB699A4234BF01230023DBB21A460C
:100A60003B6913443B61BA697B691344BB61BA6952
:100A70007B699A4234BF01230023DBB21A463B69EB
:100A800013443B61BA697B6F1344BB61BA697B6FE6
:100A90009A4234BF01230023DBB21A463B69134458
:100AA0003B617B681B68BA691344BB617B681B6848
:100AB000BA699A4234BF01230023DBB21A463B696C
:100AC00013443B613B697B677B681A1D7A60BA6996
:100AD0001A60BB681B689BB27B62BB681B681B0CFF
:100AE0003B62BB680433BB607B6ABA6A02FB03F3F8
:100AF000FB617B6AFA6A02FB03F3BB613B6AFA6A39
:100B000002FB03F37B613B6ABA6A02FB03F33B61BE
:100B1000FB691B0C3A6913443B617B691B0C3A6906
:100B200013443B61FB691B04FB617B691B047B6114
:100B3000BA69FB691344BB61BA69FB699A4234BF65
:100B400001230023DBB21A463B6913443B61BA69B7
:100B50007B691344BB61BA697B699A4234BF012344
:100B60000023DBB21A463B6913443B61BA697B6FD1
:100B70001344BB61BA697B6F9A4234BF01230023DF
:100B8000DBB21A463B6913443B617B681B68BA6958
:100B90001344BB617B681B68BA699A4234BF012366
:100BA0000023DBB21A463B6913443B613B697B6718
:100BB0007B681A1D7A60BA691A60BB681B689BB2B1
:100BC0007B62BB681B681B0C3B62BB680433BB6069
:100BD0007B6ABA6A02FB03F3FB617B6AFA6A02FB77
:100BE00003F3BB613B6AFA6A02FB03F37B613B6A76
:100BF000BA6A02FB03F33B61FB691B0C3A691344BD
:100C00003B617B691B0C3A6913443B61FB691B0424
:100C1000FB617B691B047B61BA69FB691344BB619F
:100C2000BA69FB699A4234BF01230023DBB21A463A
:100C30003B6913443B61BA697B691344BB61BA6980
:100C40007B699A4234BF01230023DBB21A463B6919
:100C500013443B61BA697B6F1344BB61BA697B6F14
:100C60009A4234BF01230023DBB21A463B69134486
:100C70003B617B681B68BA691344BB617B681B6876
:100C8000BA699A4234BF01230023DBB21A463B699A
:100C900013443B613B697B677B681A1D7A60BA69C4
:100CA0001A60FB68103BFB60FB680F2B3FF6B3A894
:100CB000A8E33B689BB2FB643B681B0CBB64BB684E
:100CC0001B689BB27B64BB681B681B0C3B64BB68E6
:100CD0000433BB607B6CBA6C02FB03F3FB637B6C7D
:100CE000FA6C02FB03F3BB633B6CFA6C02FB03F38D
:100CF0007B633B6CBA6C02FB03F33B63FB6B1B0C2B
:100D00003A6B13443B637B6B1B0C3A6B13443B63A2
:100D1000FB6B1B04FB637B6B1B047B63BA6BFB6B82
:100D20001344BB63BA6BFB6B9A4234BF01230023AD
:100D3000DBB21A463B6B13443B63BA6B7B6B1344C9
:100D4000BB63BA6B7B6B9A4234BF01230023DBB2D7
:100D50001A463B6B13443B63BA6B7B6F1344BB6314
:100D6000BA6B7B6F9A4234BF01230023DBB21A4671
:100D70003B6B13443B637B681B68BA6B1344BB63D8
:100D80007B681B68BA6B9A4234BF01230023DBB235
:100D90001A463B6B13443B633B6B7B677B681A1DB6
:100DA0007A60BA6B1A60BB681B689BB27B64BB68D5
:100DB0001B681B0C3B64BB680433BB607B6CBA6C68
:100DC00002FB03F3FB637B6CFA6C02FB03F3BB6374
:100DD0003B6CFA6C02FB03F37B633B6CBA6C02FB6B
:100DE00003F33B63FB6B1B0C3A6B13443B637B6B62
:100DF0001B0C3A6B13443B63FB6B1B04FB637B6B69
:100E00001B047B63BA6BFB6B1344BB63BA6BFB6B5A
:100E10009A4234BF01230023DBB21A463B6B1344D2
:100E20003B63BA6B7B6B1344BB63BA6B7B6B9A42BD
:100E300034BF01230023DBB21A463B6B13443B63F0
:100E4000BA6B7B6F1344BB63BA6B7B6F9A4234BF40
:100E500001230023DBB21A463B6B13443B637B68E0
:100E60001B68BA6B1344BB637B681B68BA6B9A42FE
:100E700034BF01230023DBB21A463B6B13443B63B0
:100E80003B6B7B677B681A1D7A60BA6B1A60BB6824
:100E90001B689BB27B64BB681B681B0C3B64BB6814
:100EA0000433BB607B6CBA6C02FB03F3FB637B6CAB
:100EB000FA6C02FB03F3BB633B6CFA6C02FB03F3BB
:100EC0007B633B6CBA6C02FB03F33B63FB6B1B0C59
:100ED0003A6B13443B637B6B1B0C3A6B13443B63D1
:100EE000FB6B1B04FB637B6B1B047B63BA6BFB6BB1
:100EF0001344BB63BA6BFB6B9A4234BF01230023DC
:100F0000DBB21A463B6B13443B63BA6B7B6B1344F7
:100F1000BB63BA6B7B6B9A4234BF01230023DBB205
:100F20001A463B6B13443B63BA6B7B6F1344BB6342
:100F3000BA6B7B6F9A4234BF01230023DBB21A469F
:100F40003B6B13443B637B681B68BA6B1344BB6306
:100F50007B681B68BA6B9A4234BF01230023DBB263
:100F60001A463B6B13443B633B6B7B677B681A1DE4
:100F70007A60BA6B1A60BB681B689BB27B64BB6803
:100F80001B681B0C3B64BB680433BB607B6CBA6C96
:100F900002FB03F3FB637B6CFA6C02FB03F3BB63A2
:100FA0003B6CFA6C02FB03F37B633B6CBA6C02FB99
:100FB00003F33B63FB6B1B0C3A6B13443B637B6B90
:100FC0001B0C3A6B13443B63FB6B1B04FB637B6B97
:100FD0001B047B63BA6BFB6B1344BB63BA6BFB6B89
:100FE0009A4234BF01230023DBB21A463B6B134401
:100FF0003B63BA6B7B6B1344BB63BA6B7B6B9A42EC
:1010000034BF01230023DBB21A463B6B13443B631E
:10101000BA6B7B6F1344BB63BA6B7B6F9A4234BF6E
:1010200001230023DBB21A463B6B13443B637B680E
:101030001B68BA6B1344BB637B681B68BA6B9A422C
:1010400034BF01230023DBB21A463B6B13443B63DE
:101050003B6B7B677B681A1D7A60BA6B1A60BB6852
:101060001B689BB27B64BB681B681B0C3B64BB6842
:101070000433BB607B6CBA6C02FB03F3FB637B6CD9
:10108000FA6C02FB03F3BB633B6CFA6C02FB03F3E9
:101090007B633B6CBA6C02FB03F33B63FB6B1B0C87
:1010A0003A6B13443B637B6B1B0C3A6B13443B63FF
:1010B000FB6B1B04FB637B6B1B047B63BA6BFB6BDF
:1010C0001344BB63BA6BFB6B9A4234BF012300230A
:1010D000DBB21A463B6B13443B63BA6B7B6B134426
:1010E000BB63BA6B7B6B9A4234BF01230023DBB234
:1010F0001A463B6B13443B63BA6B7B6F1344BB6371
:10110000BA6B7B6F9A4234BF01230023DBB21A46CD
:101110003B6B13443B637B681B68BA6B1344BB6334
:101120007B681B68BA6B9A4234BF01230023DBB291
:101130001A463B6B13443B633B6B7B677B681A1D12
:101140007A60BA6B1A60BB681B689BB27B64BB6831
:101150001B681B0C3B64BB680433BB607B6CBA6CC4
:1011600002FB03F3FB637B6CFA6C02FB03F3BB63D0
:101170003B6CFA6C02FB03F37B633B6CBA6C02FBC7
:1011800003F33B63FB6B1B0C3A6B13443B637B6BBE
:101190001B0C3A6B13443B63FB6B1B04FB637B6BC5
:1011A0001B047B63BA6BFB6B1344BB63BA6BFB6BB7
:1011B0009A4234BF01230023DBB21A463B6B13442F
:1011C0003B63BA6B7B6B1344BB63BA6B7B6B9A421A
:1011D00034BF01230023DBB21A463B6B13443B634D
:1011E000BA6B7B6F1344BB63BA6B7B6F9A4234BF9D
:1011F00001230023DBB21A463B6B13443B637B683D
:101200001B68BA6B1344BB637B681B68BA6B9A425A
:1012100034BF01230023DBB21A463B6B13443B630C
:101220003B6B7B677B681A1D7A60BA6B1A60BB6880
:101230001B689BB27B64BB681B681B0C3B64BB6870
:101240000433BB607B6CBA6C02FB03F3FB637B6C07
:10125000FA6C02FB03F3BB633B6CFA6C02FB03F317
:101260007B633B6CBA6C02FB03F33B63FB6B1B0CB5
:101270003A6B13443B637B6B1B0C3A6B13443B632D
:10128000FB6B1B04FB637B6B1B047B63BA6BFB6B0D
:101290001344BB63BA6BFB6B9A4234BF0123002338
:1012A000DBB21A463B6B13443B63BA6B7B6B134454
:1012B000BB63BA6B7B6B9A4234BF01230023DBB262
:1012C0001A463B6B13443B63BA6B7B6F1344BB639F
:1012D000BA6B7B6F9A4234BF01230023DBB21A46FC
:1012E0003B6B13443B637B681B68BA6B1344BB6363
:1012F0007B681B68BA6B9A4234BF01230023DBB2C0
:101300001A463B6B13443B633B6B7B677B681A1D40
:101310007A60BA6B1A60BB681B689BB27B64BB685F
:101320001B681B0C3B64BB680433BB607B6CBA6CF2
:1013300002FB03F3FB637B6CFA6C02FB03F3BB63FE
:101340003B6CFA6C02FB03F37B633B6CBA6C02FBF5
:1013500003F33B63FB6B1B0C3A6B13443B637B6BEC
:101360001B0C3A6B13443B63FB6B1B04FB637B6BF3
:101370001B047B63BA6BFB6B1344BB63BA6BFB6BE5
:101380009A4234BF01230023DBB21A463B6B13445D
:101390003B63BA6B7B6B1344BB63BA6B7B6B9A4248
:1013A00034BF01230023DBB21A463B6B13443B637B
:1013B000BA6B7B6F1344BB63BA6B7B6F9A4234BFCB
:1013C00001230023DBB21A463B6B13443B637B686B
:1013D0001B68BA6B1344BB637B681B68BA6B9A4289
:1013E00034BF01230023DBB21A463B6B13443B633B
:1013F0003B6B7B677B681A1D7A60BA6B1A60FB686F
:10140000083BFB60FB68072B3FF653AC7CE03B6876
:101410009BB2FB663B681B0CBB66BB681B689BB240
:101420007B66BB681B681B0C3B66BB680433BB60F8
:101430007B6EBA6E02FB03F3FB657B6EFA6E02FBFA
:1014400003F3BB653B6EFA6E02FB03F37B653B6EF9
:10145000BA6E02FB03F33B65FB6D1B0C3A6D134444
:101460003B657B6D1B0C3A6D13443B65FB6D1B04A8
:10147000FB657B6D1B047B65BA6DFB6D1344BB651F
:10148000BA6DFB6D9A4234BF01230023DBB21A46CA
:101490003B6D13443B65BA6D7B6D1344BB65BA6D00
:1014A0007B6D9A4234BF01230023DBB21A463B6DA9
:1014B00013443B65BA6D7B6F1344BB65BA6D7B6F9C
:1014C0009A4234BF01230023DBB21A463B6D13441A
:1014D0003B657B681B68BA6D1344BB657B681B6802
:1014E000BA6D9A4234BF01230023DBB21A463B6D2A
:1014F00013443B653B6D7B677B681A1D7A60BA6D50
:101500001A60FB68013BFB60FB68002B7FF47FAF38
:1015100011E07B681A687B6F1A447B681A607B68ED
:101520001B687A6F9A428CBF01230023DBB27B6772
:101530007B6804337B607B6F002BEAD100BF00BF68
:101540007C37BD465DF8047B704780B58EB000AF38
:10155000F860B9607A606FF06D037B630023BB6253
:1015600007F11C031846FDF7A2F807F1100318460F
:10157000FDF79DF8FA68BB689A420DD107F11C038C
:10158000B9681846FDF7A0F978637B6B002B40F033
:101590008C8007F11C03BB60FA687B689A420CD10F
:1015A00007F1100379681846FDF78EF978637B6BB5
:1015B000002B7AD107F110037B60BB685B683B634B
:1015C0000DE0BB689A683B6B03F18043013B9B00D5
:1015D00013441B68002B06D13B6B013B3B633B6B09
:1015E000002BEED100E000BF3B6B002B01D10123AB
:1015F000BB627B685B68FB620DE07B689A68FB6A94
:1016000003F18043013B9B0013441B68002B06D170
:10161000FB6A013BFB62FB6A002BEED100E000BFDE
:10162000FB6A002B01D10123BB623A6BFB6A1344B6
:101630001946F868FDF774F878637B6B002B34D19A
:101640000021F868FDF7D6F978637B6B002B2CD16D
:1016500019E0BB689968FB689A68FB6A03F18043EC
:10166000013B9B00D0187B689A68FB6A03F18043BA
:10167000013B9B0013441B680246386BFEF7BEFB20
:10168000FB6A013BFB62FB6A002BE2D1BB6A002BC9
:1016900003D0FB6801221A6007E0BB681B687A6808
:1016A000126803FB02F2FB681A6007F11003184688
:1016B000FDF710F807F11C031846FDF70BF87B6BDC
:1016C00018463837BD4680BD80B586B000AFF8609B
:1016D000B9607A60BB685B687B6102E07B69013B53
:1016E0007B617B69002B0AD0BB689A687B6903F138
:1016F0008043013B9B0013441B68002BEED07B68AA
:10170000002B02D07B69002B05D10021F868FDF782
:1017100071F903461EE06FF06D033B617B69013395
:101720001946F868FCF7FCFF38613B69002B10D1C3
:10173000B968F868FDF7C8F838613B69002B08D133
:10174000BB689968FB689A687B68013B7869FEF71B
:1017500055FB3B6918461837BD4680BD80B590B033
:1017600000AFF860B9607A603B604FF480333B6350
:101770004FF6FF73FB627B68002B03D0FA687B682F
:101780009A4209D33B68002B03D03B684FF0FF32ED
:101790001A604FF0FF33A7E07868FDF702FAB862ED
:1017A0007A68BB6A02FA03F37B60FA68BB6A02FAE2
:1017B00003F3FB60BB6AC3F12003BA6822FA03F3A8
:1017C000BA6A5242D2171340FA681343FB60BA68F0
:1017D000BB6A02FA03F3BB607B681B0C7B627A680E
:1017E000FB6A13403B62BB681B0CFB61BA68FB6A77
:1017F0001340BB61FA687B6AB2FBF3F3BB637B6A9D
:10180000BA6B02FB03F3FA68D31A7B630AE0BB6B83
:10181000013BBB637A6B7B6A13447B637A6B3B6BE4
:101820009A4210D2BA6B3B6B9A42F0D2BB6B3A6AC7
:1018300003FB02F23B6B796B03FB01F1FB690B4489
:101840009A42E4D800E000BFFB683A6B03FB02F267
:10185000BB6B796801FB03F3D31AFA6913447B610C
:101860007A697B6AB2FBF3F3FB63FB6B7A6A02FB78
:1018700003F37A69D31A7B630AE0FB6B013BFB63DA
:101880007A6B7B6A13447B637A6B3B6B9A4210D210
:10189000FA6B3B6B9A42F0D2FB6B3A6A03FB02F2A3
:1018A0003B6B796B03FB01F1BB690B449A42E4D8B3
:1018B00000E000BF3B68002B0ED07B693A6B03FB56
:1018C00002F2BB691A44FB6B796801FB03F3D21A7D
:1018D000BB6ADA403B681A60BB6B3A6B02FB03F3EE
:1018E000FA6B13443B613B6918464037BD4680BDE7
:1018F000F0B59DB000AFF860B9607A603B606FF002
:101900006D03FB6600213868FDF7FAFF0346002BE4
:1019100002D16FF00B0379E207F150031846FCF790
:10192000C6FE07F144031846FCF7C1FE07F1380371
:101930001846FCF7BCFE07F12C031846FCF7B7FE6F
:1019400001233B6203237B6207F11403BB62396806
:101950007868FDF7B8FE0346002B19DAFB68002B08
:1019600008D00021F868FDF745F8F866FB6E002BFB
:1019700040F03182BB68002B08D07968B868FCF76A
:10198000A3FFF866FB6E002B40F0258200233DE2AA
:1019900007F1500379681846FCF796FFF866FB6E6E
:1019A000002B40F0188207F1440339681846FCF711
:1019B0008BFFF866FB6E002B40F00D8201237B64E9
:1019C0007B6C3B657B685B689A1C07F138031146AA
:1019D0001846FCF7A5FEF866FB6E002B40F0FB8175
:1019E00007F1380300211846FDF704F8F866FB6E8E
:1019F000002B40F0F0817B685B689A1C07F12C0398
:101A000011461846FCF78CFEF866FB6E002B40F082
:101A1000E28107F144031846FDF7E4F8034603F0BA
:101A20001F037B667B6E1E2B19D87B6EC3F11F03D1
:101A30007B6607F15003796E1846FDF704FDF866E2
:101A4000FB6E002B40F0C78107F14403796E184606
:101A5000FDF7F9FCF866FB6E002B02D0BBE100231A
:101A60007B667B6D013B3B66BB6C013BFB653A6E65
:101A7000FB6DD31A5A0107F1440311461846FDF7CE
:101A8000E2FCF866FB6E002B40F0A58116E03A6C94
:101A9000396EFB6DCB1A9B0013441A6801321A6031
:101AA00007F1440207F1500107F150031846FEF711
:101AB0004BF9F866FB6E002B40F08D8107F1440274
:101AC00007F1500311461846FDF77FFE0346002B31
:101AD000DDDA3A6EFB6DD31A5A0107F14403114661
:101AE0001846FDF755FDF866FB6E002B40F073813C
:101AF0003B6EBB662FE1BA6DBB6E9B0013441A6848
:101B0000F96CFB6D9B000B441B689A420CD33A6C3A
:101B1000B96EFB6DCB1A03F18043013B9B0013446C
:101B20004FF0FF321A6021E0BA6DBB6E9B00134488
:101B30001868BA6DBB6E03F18043013B9B001344F0
:101B40001D68FA6CFB6D9B0013441E683A6CB96EFD
:101B5000FB6DCB1A03F18043013B9B00D41800239B
:101B600032462946FFF7FAFD03462360BB6E012B80
:101B700008D9BA6DBB6E03F18043023B9B0013444E
:101B80001B6800E00023BA6A1360BB6E002B08D00C
:101B9000BA6DBB6E03F18043013B9B0013441B688D
:101BA00000E00023BA6A04321360BA6DBB6E9B007A
:101BB0001A44BB6A083312681A603A6CB96EFB6D3E
:101BC000CB1A03F18043013B9B0013441A68013296
:101BD0001A603A6CB96EFB6DCB1A03F18043013B7E
:101BE0009B0013441A68013A1A6007F12C03002184
:101BF0001846FCF7FFFEF866FB6E002B40F0EB800A
:101C0000FB6D002B08D0FA6CFB6D03F18043013BA8
:101C10009B0013441B6800E000237A6B1360FA6C8E
:101C2000FB6D9B001A447B6B043312681A603A6C9C
:101C3000B96EFB6DCB1A03F18043013B9B0013444B
:101C40001A6807F12C0107F12C031846FFF73CFD39
:101C5000F866FB6E002B40F0BE8007F1200207F112
:101C60002C0311461846FDF7B0FD0346002BB0DCEF
:101C70003A6CB96EFB6DCB1A03F18043013B9B00BC
:101C800013441A6807F1440107F12C031846FFF7C3
:101C90001BFDF866FB6E002B40F09D80BA6EFB6D5D
:101CA000D31A013B5A0107F12C0311461846FDF7E0
:101CB000CAFBF866FB6E002B40F08D8007F12C020A
:101CC00007F1500107F150031846FEF73DF8F8669A
:101CD000FB6E002B7FD107F1500300211846FDF762
:101CE0000FFE0346002B33DA07F1440207F12C0301
:101CF00011461846FCF7E8FDF866FB6E002B6AD12A
:101D0000BA6EFB6DD31A013B5A0107F12C03114641
:101D10001846FDF798FBF866FB6E002B5BD107F1C8
:101D20002C0207F1500107F150031846FDF7FBFFA5
:101D3000F866FB6E002B4ED13A6CB96EFB6DCB1A78
:101D400003F18043013B9B0013441A68013A1A6077
:101D5000BB6E013BBB66BA6EFB6D9A423FF6CBAEE3
:101D6000FB68002B11D007F138031946F868FCF71F
:101D7000ABFDF866FB6E002B2DD17B681B683A68C3
:101D8000126803FB02F2FB681A60BB68002B21D0CB
:101D900007F15003796E1846FDF7FAFBF866FB6E03
:101DA000002B18D17B681B683B6507F1500319466F
:101DB000B868FCF789FDF866FB6E002B0BD100219B
:101DC000B868FDF79DFD0346002B03D1BB680122D7
:101DD0001A6000E000BF07F150031846FCF77AFCD8
:101DE00007F144031846FCF775FC07F13803184661
:101DF000FCF770FC07F12C031846FCF76BFC07F1AD
:101E000014030C21184604F053FCFB6E184674377B
:101E1000BD46F0BD80B588B000AFF860B9607A60AB
:101E20003B603868FCF7D5FD03463B613B68002BFF
:101E300002DA4FF0FF3300E001237B610123BB6135
:101E400007F11003FB6107F114037A68B968F868B9
:101E5000FFF74EFD034618462037BD4680BD80B5CE
:101E600086B000AFF860B9607A606FF06D037B6197
:101E700000217868FDF744FD0346002B02DA6FF07D
:101E800009032DE07B68BA68F9680020FFF730FD90
:101E900078617B69002B22D108E07A68F968F868DC
:101EA000FDF741FF78617B69002B18D10021F868AC
:101EB000FDF726FD0346002BEFDB08E07A68F968A2
:101EC000F868FDF741FF78617B69002B07D17968DD
:101ED000F868FDF77AFC0346002BEFDA00BF7B6958
:101EE00018461837BD4680BD80B489B000AFF86091
:101EF000B9607A607B68002B02D16FF00B0369E058
:101F00007B68002B02DA6FF0090363E07B68012B2A
:101F100003D0BB685B68002B04D1FB6800221A6009
:101F2000002357E07B68022B08D1BB689B681B68C5
:101F300003F00102FB681A6000234BE0BB685B689A
:101F4000FB610023BB6133E0BB689A68FB6903F166
:101F50008043013B9B0013441B687B61BB691A04EF
:101F60007B691B0C1343BB617B68BA69B2FBF3F35B
:101F70003B617B683A6902FB03F3BA69D31ABB6120
:101F80007B691B047B61BB691A047B691B0C1343CF
:101F9000BB617B68BA69B2FBF3F33B617B683A696A
:101FA00002FB03F3BA69D31ABB61FB69013BFB6116
:101FB000FB69002BC8D1BB681B68002B06DABB6924
:101FC000002B03D07A68BB69D31ABB61FB68BA697E
:101FD0001A60002318462437BD465DF8047B70471D
:101FE00080B485B000AF78607B681B68FB607B685D
:101FF0001B6802335B0003F00803FA681344FB60BC
:102000002023BB600DE07B681B68FA6802FB03F3CA
:10201000C3F10202FB6802FB03F3FB60BB685B08D1
:10202000BB60BB68072BEED8FB685B4218461437D1
:10203000BD465DF8047B704780B58AB000AFF8609C
:10204000B9607A603B603B6B98683B6B5B689B0058
:102050001A46002113F014FA3B6B9B683B627B68C5
:102060005B68FB61BB685B68FA69934228BF1346F3
:10207000BB6100237B6230E0FB689A687B6A9B004F
:1020800013441B687B613B6A1A68BB689B681B68CA
:10209000796901FB03F31A443B6802FB03F33B61DC
:1020A000BB6899687B693A6AB869FDF7A7FE7B68E7
:1020B00099683B693A6AF869FDF7A0FE3B6A1A1D08
:1020C0003A627A691A60FB6901339B003A6A1344E9
:1020D00000221A607B6A01337B627A6AFB699A424A
:1020E000CAD3FB689868FB699B001A46396A13F0EB
:1020F000CFFAFB699B003A6A13441A68FB699B009C
:10210000396A0B4401321A607B689B683A6A396A03
:10211000F869FDF7CEFCFB699B003A6A13441A6824
:10212000FB699B00396A0B44121A1A60FB689968B4
:10213000FB699B003A6A13441B68DBB23A6AF86990
:1021400001F068F900BF2837BD4680BD80B58AB070
:1021500002AFF860B9607A603B600123FB61FB6904
:102160003B613B697B6107F11C03BB6107F1100117
:102170003B6800937B68BA68F868FFF75DFF00BFB3
:102180002037BD4680BD90B587B000AFF860B9601C
:102190007A603B606FF06D037B6100233B6119E067
:1021A0003A6913465B0013449B001A46BB689C18AF
:1021B0003968386901F0DEF80346DBB21A46214679
:1021C000F86801F019FA78617B69002B07D13B6947
:1021D00001333B613A697B689A42E1D300BF7B6976
:1021E00018461C37BD4690BD80B584B000AF7860FE
:1021F00039606FF06D03FB6001217868FCF7FAFB32
:10220000F860FB68002B1DD13B685B689B01194699
:102210007868FDF718F9F860FB68002B12D13A686E
:1022200079687868FFF71BFEF860FB68002B09D11E
:102230003B685B6819467868FCF7B5FAF860FB689C
:10224000002B00BFFB6818461037BD4680BD80B527
:10225000ACB002AFF860B9607A603B606FF06D03BC
:10226000C7F8A4300023C7F88C3000213868FDF788
:1022700047FB0346002B06DD3B689B681B6803F0A9
:102280000103002B02D16FF00303EDE30021786816
:10229000FDF736FB0346002B02DA6FF00303E3E39E
:1022A0007868FCF79FFC0346B3F5C07F06D8386812
:1022B000FCF798FC0346B3F5C07F02D96FF0030327
:1022C000D2E33B689B681846FFF78AFEC7F8840094
:1022D00007F164031846FCF7EAF907F158031846BA
:1022E000FCF7E5F907F110031846FCF7E0F907F1F0
:1022F0001C031846FCF7DBF907F128033022002104
:10230000184613F0BDF87868FCF76CFCC7F89C0021
:10231000D7F89C30B3F5287F13D2D7F89C30EF2B39
:102320000DD8D7F89C304F2B07D8D7F89C30172BF7
:1023300001D9032306E0012304E0042302E005237E
:1023400000E00623C7F8A030D7F8A030022B02D94E
:102350000223C7F8A0300122D7F8A03002FA03F315
:10236000C7F880300023FB6707F12801FA6F134696
:102370005B0013449B000B441846FCF798F93B683C
:102380005B680133BB6707F12801FA6F13465B00F6
:1023900013449B000B44B96F1846FCF7C1F9C7F80A
:1023A000A400D7F8A430002B40F0118307F12803D4
:1023B0000C33B96F1846FCF7B3F9C7F8A400D7F887
:1023C000A430002B40F00383BB6F5A0007F1580381
:1023D00011461846FCF7A4F9C7F8A400D7F8A430B2
:1023E000002B40F0F482BB681B68B3F1FF3F0CBFC9
:1023F00001230023DBB27B677B6F002B11D007F139
:102400001003B9681846FCF75FFAC7F8A400D7F8BC
:10241000A430002B40F0DB8201233B6107F1100365
:10242000BB60D7F8B030002B04D0D7F8B0309B6831
:10243000002B12D107F1640339681846FFF7D4FE68
:10244000D7F8B030002B10D007F164030C221946E6
:10245000D7F8B00013F01CF907E007F164030C2271
:10246000D7F8B010184613F013F93968B868FDF7BB
:10247000ACF90346002B1FDB07F128030C333A6845
:10248000B9681846FFF7EBFCC7F8A400D7F8A430EA
:10249000002B40F09C823B685B685A1C07F12803C4
:1024A0000C3311461846FCF73BF9C7F8A400D7F8DF
:1024B000A430002B0ED08AE207F128030C33B96850
:1024C0001846FCF701FAC7F8A400D7F8A430002B8F
:1024D00040F07D8207F1640107F1280303F10C004D
:1024E00007F158030093D7F884303A68FFF7A4FD4A
:1024F00007F12801FA6F13465B0013449B000B445D
:1025000007F1640211461846FCF7DEF9C7F8A4008B
:10251000D7F8A430002B40F05A8207F12801FA6F57
:1025200013465B0013449B00C81807F15803D7F803
:1025300084203968FFF70AFED7F8A030012B40F25B
:10254000B180D7F880305B08BB6707F12801BA6F0C
:1025500013465B0013449B00CA183B685B68013359
:1025600019461046FCF7DCF8C7F8A400D7F8A430E9
:10257000002B40F02C8207F12801BA6F13465B0054
:1025800013449B00CA1807F128030C331946104660
:10259000FCF79AF9C7F8A400D7F8A430002B40F054
:1025A00016820023C7F89C301CE007F12801BA6F9F
:1025B00013465B0013449B00C81807F12801BA6F4B
:1025C00013465B0013449B00194407F15803009322
:1025D000D7F884303A68FFF72FFDD7F89C300133E5
:1025E000C7F89C30D7F8A030013BD7F89C209A421E
:1025F000DBD3BB6F0133C7F89C304DE007F12801F6
:10260000D7F89C2013465B0013449B00CA183B6814
:102610005B68013319461046FCF782F8C7F8A4003E
:10262000D7F8A430002B40F0D28107F12801D7F869
:102630009C2013465B0013449B00C818D7F89C30BD
:102640005A1E07F1280113465B0013449B000B44FC
:102650001946FCF739F9C7F8A400D7F8A430002BC5
:1026600040F0B58107F12801D7F89C2013465B00A4
:1026700013449B00C81807F1280303F10C0107F16C
:1026800058030093D7F884303A68FFF7D5FCD7F8A1
:102690009C300133C7F89C30D7F89C20D7F88030A5
:1026A0009A42ABD37B685B68C7F898300023C7F8C1
:1026B00094300023C7F890300023C7F88830D7F84B
:1026C0009430002B0CD1D7F89830002B00F0CA8042
:1026D000D7F89830013BC7F898302023C7F89430DA
:1026E000D7F89430013BC7F894307B689A68D7F8E4
:1026F00098309B0013441A68D7F8943022FA03F3F9
:1027000003F001033B673B6F002B04D1D7F88830FF
:10271000002B00F0A5803B6F002B26D1D7F8883026
:10272000012B22D107F1280107F11C00FB6FD7F81C
:102730008020FFF728FDC7F8A400D7F8A430002BAD
:1027400040F0458107F12801FA6F13465B001344FE
:102750009B00C81807F11C0107F158030093D7F834
:1027600084303A68FFF768FC7BE00223C7F88830C2
:10277000D7F890300133C7F89030D7F8A020D7F8B9
:102780009030D31A3A6F02FA03F3D7F88C20134330
:10279000C7F88C30D7F89020D7F8A0309A428ED165
:1027A0000023C7F89C3026E007F1280107F11C0040
:1027B000FB6FD7F88020FFF7E6FCC7F8A400D7F836
:1027C000A430002B40F0038107F12801FA6F134673
:1027D0005B0013449B00C81807F11C0107F1580364
:1027E0000093D7F884303A68FFF726FCD7F89C307E
:1027F0000133C7F89C30D7F89C20D7F8A0309A4214
:10280000D2D307F1280107F11C00D7F88C30D7F894
:102810008020FFF7B8FCC7F8A400D7F8A430002B3D
:1028200040F0D58007F12801FA6F13465B0013448E
:102830009B00C81807F11C0107F158030093D7F853
:1028400084303A68FFF7F8FBD7F88830013BC7F8C7
:1028500088300023C7F890300023C7F88C302EE76B
:1028600000BF2CE700BF0023C7F89C3055E007F1FC
:10287000280107F11C00FB6FD7F88020FFF783FCCD
:10288000C7F8A400D7F8A430002B40F0A08007F1CF
:102890002801FA6F13465B0013449B00C81807F128
:1028A0001C0107F158030093D7F884303A68FFF70A
:1028B000C3FBD7F88C305B00C7F88C300122D7F807
:1028C000A0309A40D7F88C301340002B20D007F16D
:1028D000280107F11C000123D7F88020FFF753FCE3
:1028E000C7F8A400D7F8A430002B70D107F1280155
:1028F000FA6F13465B0013449B00C81807F11C01D4
:1029000007F158030093D7F884303A68FFF794FB37
:10291000D7F89C300133C7F89C30D7F89C20D7F803
:1029200090309A42A3D307F12801FA6F13465B0057
:1029300013449B00C81807F15803D7F8842039685E
:10294000FFF704FC7B6F002B2FD07B685B68002BAC
:102950002BD07B689B681B6803F00103002B24D0FD
:10296000FA6F13465B0013449B00A8333B44803B43
:102970004FF0FF321A6007F12801FA6F13465B002F
:1029800013449B00C81807F12801FA6F13465B0037
:1029900013449B000B441A463968FDF7C4F9C7F885
:1029A000A400D7F8A430002B11D107F12801FA6F49
:1029B00013465B0013449B000B441946F868FBF771
:1029C00083FFC7F8A400D7F8A430002B00BFD7F8C6
:1029D00080305B08C7F89C3010E007F12801D7F879
:1029E0009C2013465B0013449B000B441846FBF7E6
:1029F00071FED7F89C300133C7F89C30D7F89C2083
:102A0000D7F880309A42E8D307F12801FA6F1346CD
:102A10005B0013449B000B441846FBF75BFE07F179
:102A200028030C331846FBF755FE07F158031846E8
:102A3000FBF750FE07F110031846FBF74BFE07F1BA
:102A40001C031846FBF746FED7F8B030002B04D025
:102A5000D7F8B0309B68002B04D107F16403184607
:102A6000FBF738FED7F8A4301846A837BD4680BD1E
:102A700080B58EB000AFF860B9607A606FF06D031A
:102A80007B6307F120031846FBF711FE07F11403DF
:102A90001846FBF70CFE07F12003B9681846FBF750
:102AA00013FF78637B6B002B40F0AB8007F11403BE
:102AB00079681846FBF708FF78637B6B002B40F0C2
:102AC000A08007F120031846FCF738F8386307F1B7
:102AD00014031846FCF732F8F862FB6A002B0ED19B
:102AE00007F1140300211846FBF7B2FF0346002B41
:102AF00005D1B968F868FBF7E7FE786381E0FA6A08
:102B00003B6B9A4201D2FB6A3B6301237B617B6989
:102B10003B6259E007F120031846FCF70FF8024624
:102B200007F1200311461846FCF732FD78637B6BF2
:102B3000002B66D107F114031846FBF7FFFF02468E
:102B400007F1140311461846FCF722FD78637B6BEE
:102B5000002B56D107F1140207F120031146184645
:102B6000FCF733FE0346002B17DB07F1140207F1D5
:102B7000200107F120031846FCF7E4FF78637B6B24
:102B8000002B3ED107F1200301211846FCF700FD80
:102B900078637B6B002B17D033E007F1200207F13D
:102BA000140107F114031846FCF7CCFF78637B6B24
:102BB000002B26D107F1140301211846FCF7E8FC8D
:102BC00078637B6B002B1CD107F120030021184692
:102BD000FCF796FE0346002B9CD107F11403396BDA
:102BE0001846FCF730FC78637B6B002B09D107F1AA
:102BF00014031946F868FBF767FE78637B6B002BBC
:102C000000BF07F120031846FBF764FD07F114032A
:102C10001846FBF75FFD7B6B18463837BD4680BD15
:102C200080B588B000AFF860B9607A603B606FF043
:102C30006D03FB61BB689B08BA6802F00302002ABF
:102C400014BF01220022D2B21344BB61BB699A00B7
:102C5000BB68D31A7B61FB685B68BA699A4202D988
:102C60006FF0030327E0FB689B687A690021184630
:102C700012F006FCFB689A68BB699B00D018FB68E1
:102C80005A68BB69D31A9B001A46002112F0F8FB60
:102C9000FB689A687B69D1187B68BA68386898477E
:102CA000F861FB69002B05D1FB689B68B969184680
:102CB000FCF750FAFB6918462037BD4680BD80B549
:102CC00086B000AFF860B9607A603B606FF06D036A
:102CD0007B61BB689B08BA6802F00302002A14BF3C
:102CE00001220022D2B213443B613969F868FBF734
:102CF000C0FD78617B69002B0BD1BB68002B01D133
:102D0000002307E03B687A68B968F868FFF788FF36
:102D100078617B6918461837BD4680BD80B58EB096
:102D200000AFF860B9607A603B606FF003037B63CB
:102D300001237B6200233B627868FBF753FFF86254
:102D4000FB6A0733DB08BB62BB68002B02DA6FF05B
:102D500003037AE0B9687868FCF7D2FD0346002BDC
:102D600002DC6FF0030370E0BB6A042B01D91E2361
:102D700000E0FA233B6307F114031846FBF797FCC6
:102D80007B685B681946F868FBF773FD78637B6BBB
:102D9000002B54D17B685A6807F11403114618467A
:102DA000FBF7BEFC78637B6B002B48D107F1140363
:102DB000B9681846FBF71EFE78637B6B002B00D0CA
:102DC0003DE03B6C3A68B96AF868FFF729FF786321
:102DD0007B6B002B33D1BB6ADA00FB6AD31A19462E
:102DE000F868FCF7D5FB78637B6B002B27D13B6B36
:102DF000013B3B633B6B002B03D16FF00D037B6307
:102E00001DE007F1240207F114031946F86800F0E9
:102E1000C8FC78637B6B002B11D107F120031A46A5
:102E20007968F86800F0BDFC78637B6B002B06D1F5
:102E30007B6A002BC5D13B6A002BC2D000BF07F1D3
:102E400014031846FBF746FC7B6B18463837BD4623
:102E500080BD80B5A0B000AFF860B9607A606FF057
:102E60006D03FB6701217868FCF74AFD0346002BE0
:102E700002DC6FF0030309E207F164031846FBF775
:102E800016FC07F158031846FBF711FC07F14C0339
:102E90001846FBF70CFC07F140031846FBF707FC4C
:102EA00007F170031846FBF702FC07F134031846DC
:102EB000FBF7FDFB07F128031846FBF7F8FB07F1CA
:102EC0001C031846FBF7F3FB07F110031846FBF74A
:102ED000EEFB07F170037A68B9681846FFF7C8FD82
:102EE000F867FB6F002B40F0A38107F1700301210D
:102EF0001846FCF705FD0346002B03D06FF00D03C9
:102F0000FB6795E107F164037A68B9681846FEF734
:102F1000A6FFF867FB6F002B40F08A8107F164027F
:102F200007F1580311461846FBF7CEFCF867FB6F14
:102F3000002B40F07D8107F1340379681846FBF7D8
:102F4000C3FCF867FB6F002B40F0728107F1280388
:102F500079681846FBF7B8FCF867FB6F002B40F068
:102F6000678107F14C0301211846FBF743FDF86721
:102F7000FB6F002B40F05C8107F1400300211846F5
:102F8000FBF738FDF867FB6F002B40F0518107F12C
:102F90001C0300211846FBF72DFDF867FB6F002B83
:102FA00040F0468107F1100301211846FBF722FD8E
:102FB000F867FB6F002B40F03B8148E007F15803B6
:102FC00001211846FCF7E4FAF867FB6F002B40F08C
:102FD0002F817B6D1B6803F00103002B05D1BB6CB7
:102FE0001B6803F00103002B1BD007F1340207F12B
:102FF0004C0107F14C031846FCF795FEF867FB6F90
:10300000002B40F0158107F1640207F1400107F140
:1030100040031846FCF798FEF867FB6F002B40F062
:10302000078107F14C0301211846FCF7B1FAF86754
:10303000FB6F002B40F0FC8007F140030121184694
:10304000FCF7A6FAF867FB6F002B40F0F1803B6EAF
:103050001B6803F00103002BB0D048E007F1280300
:1030600001211846FCF794FAF867FB6F002B40F03B
:10307000DF807B6A1B6803F00103002B05D1BB696D
:103080001B6803F00103002B1BD007F1340207F18A
:103090001C0107F11C031846FCF745FEF867FB6F9F
:1030A000002B40F0C58007F1640207F1100107F121
:1030B00010031846FCF748FEF867FB6F002B40F042
:1030C000B78007F11C0301211846FCF761FAF86785
:1030D000FB6F002B40F0AC8007F110030121184674
:1030E000FCF756FAF867FB6F002B40F0A1803B6BB2
:1030F0001B6803F00103002BB0D007F1280207F191
:10310000580311461846FCF760FB0346002B28DBEA
:1031100007F1280207F1580107F158031846FCF798
:1031200013FEF867FB6F002B40F0828007F11C0252
:1031300007F14C0107F14C031846FCF705FEF86750
:10314000FB6F002B74D107F1100207F1400107F16A
:1031500040031846FCF7F8FDF867FB6F002B27D0FB
:1031600066E007F1580207F1280107F12803184625
:10317000FCF7EAFDF867FB6F002B59D107F14C0211
:1031800007F11C0107F11C031846FCF7DDFDF86789
:10319000FB6F002B4CD107F1400207F1100107F142
:1031A00010031846FCF7D0FDF867FB6F002B3FD1EA
:1031B00007F1580300211846FCF7A2FB0346002B39
:1031C0007FF445AF0BE007F11C0107F11C037A689F
:1031D0001846FCF7A8FDF867FB6F002B28D107F114
:1031E0001C0300211846FCF78BFB0346002BEADB8F
:1031F0000BE007F11C0107F11C037A681846FCF785
:10320000A3FDF867FB6F002B12D107F11C0379684F
:103210001846FCF7DAFA0346002BEADA07F11C033A
:103220001946F868FBF750FBF867FB6F002B00BFEF
:1032300007F164031846FBF74DFA07F158031846E7
:10324000FBF748FA07F14C031846FBF743FA07F17E
:1032500040031846FBF73EFA07F170031846FBF7E8
:1032600039FA07F134031846FBF734FA07F128035B
:103270001846FBF72FFA07F11C031846FBF72AFA4A
:1032800007F110031846FBF725FAFB6F1846803745
:10329000BD4680BD80B489B000AFF860B9607A6087
:1032A000FB68BB61BB687B6100237B740023FB610F
:1032B00015E0BA69FB6913441B78FB747A69FB69F2
:1032C00013441B78BB74FA7CBB7C5340DAB27B7C22
:1032D000DBB21343DBB27B74FB690133FB61FA6938
:1032E0007B689A42E5D37B7CDBB218462437BD4627
:1032F0005DF8047B704780B483B000AF78607B6872
:103300005A427B681343DB1718460C37BD465DF8FD
:10331000047B704780B483B000AF78607B685A420A
:103320007B681343DB1718460C37BD465DF8047BFA
:10333000704780B485B000AF0346FB710B46BB718C
:1033400013467B717A79FB79D31A1B0AFB60BA7931
:103350007B79D31A1B0ABB60FB68DAB2BB68DBB2AD
:103360001343DBB2DB43DBB218461437BD465DF8CE
:10337000047B704780B487B000AF786039607A68AA
:103380003B6853407B617B695B427A6913433B61D5
:103390003B69DB0FFB60FB6883F0010318461C37B9
:1033A000BD465DF8047B704780B485B000AF78609F
:1033B00039607A683B685340FB607A683B68D21A90
:1033C000FB68DB431340BB603A68FB681340BA6894
:1033D0001343BB60BB68DB0FBB60BB681846143788
:1033E000BD465DF8047B704780B586B000AFF860DD
:1033F000B9607A60F868FFF77EFF78617A69BB6828
:103400001A407B69D9437B680B4013431846183731
:10341000BD4680BD80B487B000AFF860B9607A6007
:10342000FB70FB785B423B6100237B6118E07B69AA
:103430009B007A6813441A683B6902EA03017B69BE
:103440009B00BA6813441A683B69DB431A407B69E6
:103450009B00B86803440A431A607B6901337B61AF
:103460007A69FB689A42E2D300BF00BF1C37BD46B1
:103470005DF8047B704780B584B000AF0346FB71F4
:103480000023FB73FB791A4619210020FFF751FF37
:1034900003461A46FB79413313405AB297F90F306D
:1034A00013435BB2FB73FB791A4633211A20FFF7F3
:1034B00040FF03461A46FB79473313405AB297F947
:1034C0000F3013435BB2FB73FB791A463D21342066
:1034D000FFF72FFF03461A46FB79043B13405AB20D
:1034E00097F90F3013435BB2FB73FB791A463E2109
:1034F0003E20FFF71EFF034603F02B035AB297F955
:103500000F3013435BB2FB73FB791A463F213F2018
:10351000FFF70FFF034603F02F035AB297F90F305E
:1035200013435BB2FB73FB7B18461037BD4680BD6F
:1035300080B584B000AF0346FB710023FB73FB79B9
:103540001A465A214120FFF7F4FE03461A46FB793A
:10355000403B13405AB297F90F3013435BB2FB73F1
:10356000FB791A467A216120FFF7E3FE03461A46EB
:10357000FB79463B13405AB297F90F3013435BB2C5
:10358000FB73FB791A4639213020FFF7D2FE034640
:103590001A46FB79053313405AB297F90F3013439B
:1035A0005BB2FB73FB791A462B212B20FFF7C1FE80
:1035B00003461A46FB79143313405AB297F90F3079
:1035C00013435BB2FB73FB791A462F212F20FFF7C1
:1035D000B0FE03461A46FB79113313405AB297F9ED
:1035E0000F3013435BB2FB73FB7B013BDBB25BB27F
:1035F00018461037BD4680BD80B588B000AFF86072
:10360000B9601346FB710023BB61FB791846FFF7D5
:1036100081FE7861BB685B681946F868FBF780F843
:10362000B861BB69002B31D1F879BB681B681946BA
:10363000FB681B681A46FFF7D7FE03461A46FB686D
:103640001A60BB685868FB689968BB689A68FB7920
:10365000FFF7E0FEBB685B68FB6111E0FB689A68FE
:10366000FB699B00134419687B69DA43FB6898681F
:10367000FB699B0003440A401A60FB690133FB614C
:10368000FB685B68FA699A42E8D300BFBB691846D9
:103690002037BD4680BD80B58AB000AFF860B96004
:1036A0001346FB71FA68BB689A4201D1002374E0AB
:1036B000FB791846FFF72EFEF861BB685B68194678
:1036C000F868FBF72DF878627B6A002B64D1FB6801
:1036D0005B681946B868FBF723F878627B6A002BB1
:1036E0005AD1FB681B68BB61F879BB681B68194637
:1036F000FB681B681A46FFF777FE03461A46FB680D
:103700001A60F879B969BB681B681A46FFF76CFE46
:1037100003461A46BB681A6000233B6236E0FB682A
:103720009A683B6A9B0013441B687B61FB689A683C
:103730003B6A9B0013441A68FB69DB4302EA0301FE
:10374000BB689A683B6A9B0013441A68FB691A407D
:10375000FB6898683B6A9B0003440A431A60BB6895
:103760009A683B6A9B0013441A68FB69DB4302EAD0
:1037700003017A69FB691A40BB6898683B6A9B0041
:1037800003440A431A603B6A01333B62FB685B688F
:103790003A6A9A42C3D300BF7B6A18462837BD46AF
:1037A00080BD80B58AB000AFF860B9607A60FB6810
:1037B0005A68BB685B689A4202D06FF003036FE0FF
:1037C000FB681B685B1003F00103FB61BB681B68AF
:1037D0005B1003F00103BB61FA69BB6953407B6175
:1037E0007A69FB691A407B681A607B693B62FB68F7
:1037F0005B687B6250E0BB689A687B6A03F1804338
:10380000013B9B0013441868FB689A687B6A03F1CC
:103810008043013B9B0013441B681946FFF7C4FD1E
:1038200078617B681A683B6AC3F101017B691940C2
:10383000FB690B401A437B681A603A6A7B69134341
:103840003B62FB689A687B6A03F18043013B9B0003
:1038500013441868BB689A687B6A03F18043013B94
:103860009B0013441B681946FFF79EFD78617B6837
:103870001A683B6AC3F101017B691940FB69C3F116
:1038800001030B401A437B681A603A6A7B69134351
:103890003B627B6A013B7B627B6A002BABD10023DE
:1038A00018462837BD4680BD80B582B000AF78602D
:1038B000786805F0D9F900BF0837BD4680BD80B5EE
:1038C00082B000AF7860786805F0E4F900BF08378F
:1038D000BD4680BD80B584B000AFF860B9607A6045
:1038E0007A68B968F86805F0F3FE034618461037A1
:1038F000BD4680BD80B584B000AFF860B9607A6025
:103900007A680021B86811F0BBFD00231846103713
:10391000BD4680BD80B594B002AFF860B9607A60F2
:103920007B68302B02D9124B7B6415E007F114033E
:103930007A681946B868FBF722FD78647B6C002B27
:103940000AD107F114027B6800931346002209494B
:10395000F86805F0B5FD786407F114037968184636
:1039600002F0A6FE7B6C18464837BD4680BD00BFFE
:1039700000B3FFFFF538070880B400AF024B1846CC
:10398000BD465DF8047B70470887080880B582B0A3
:1039900000AF124B1B68002B1BD100237B60FFF78D
:1039A000EBFF386009E07B685A1C7A603A6811784E
:1039B0000B4AD1543B680C333B603B681B78002BAF
:1039C000F1D1074A7B68134400221A70034B01228D
:1039D0001A60034B18460837BD4680BDFC06002020
:1039E000F806002080B584B000AF0346FB71FFF7F6
:1039F000C3FFF86009E0FB681B78FA799A4201D1AD
:103A0000FB6807E0FB680C33FB60FB681B78002B4E
:103A1000F1D1002318461037BD4680BD80B584B073
:103A200000AF0346FB80FFF7A7FFF86009E0FB68E3
:103A30005B88FA889A4201D1FB6807E0FB680C3387
:103A4000FB60FB681B78002BF1D100231846103770
:103A5000BD4680BD80B584B000AF78607B68002B28
:103A600001D1002316E0FFF787FFF8600DE0FB6847
:103A70009B687968184607F049F80346002B01D186
:103A8000FB6807E0FB680C33FB60FB681B78002BCE
:103A9000EDD1002318461037BD4680BD80B483B0F9
:103AA00000AF78607B681B6B002B01D1002306E020
:103AB0007B68DB6B002B01D1022300E00123184659
:103AC0000C37BD465DF8047B704780B582B000AF0F
:103AD00078607B681846FAF7EAFD7B680C33184675
:103AE000FAF7E5FD7B6818331846FAF7E0FD00BFEA
:103AF0000837BD4680BD80B582B000AF78607B6876
:103B000000221A707B6804331846FAF7D0FD7B68F0
:103B100010331846FAF7CBFD7B681C331846FAF7CA
:103B2000C6FD7B6828331846FFF7CFFF7B684C3310
:103B30001846FAF7BCFD7B6800229A657B68002274
:103B4000DA657B6800221A667B6800225A667B6809
:103B500000229A667B680022DA667B6800221A6778
:103B60007B6800225A677B6800229A6700BF08378B
:103B7000BD4680BD80B582B000AF78607B681846D6
:103B8000FFF7B9FF7B687C331846FAF790FD7B6836
:103B900088331846FFF799FF00BF0837BD4680BD40
:103BA00080B582B000AF78607B68002B0ED07B6858
:103BB0001846FAF78FFD7B680C331846FAF78AFD32
:103BC0007B6818331846FAF785FD00E000BF083718
:103BD000BD4680BD80B584B000AF78607B68002BA7
:103BE00040D07B681B6E012B18D07B6804331846CD
:103BF000FAF770FD7B6810331846FAF76BFD7B68A7
:103C00001C331846FAF766FD7B6828331846FFF721
:103C1000C7FF7B684C331846FAF75CFD7B685B6F27
:103C2000002B1AD00023FB600DE07B68596FFA6807
:103C30001346DB0013449B000B441846FFF7B0FF0C
:103C4000FB680133FB607B689B6FFA689A42ECD398
:103C50007B685B6F18460FF079FD7C21786802F075
:103C600027FD00E000BF1037BD4680BD80B582B0A3
:103C700000AF78607B68002B0ED07B681846FFF79A
:103C8000A9FF7B687C331846FAF724FD7B688833EC
:103C90001846FFF785FF00E000BF0837BD4680BD2E
:103CA00080B584B000AF786039606FF06D03FB6061
:103CB0007B683A6811461846FAF706FEF860FB681A
:103CC000002B19D17B6803F10C023B680C331946B9
:103CD0001046FAF7F9FDF860FB68002B0CD17B6801
:103CE00003F118023B68183319461046FAF7ECFD49
:103CF000F860FB68002B00BFFB6818461037BD4614
:103D000080BD80B582B000AF786039603B681B78B9
:103D10001946786802F05DFB034618460837BD4631
:103D200080BD80B584B000AF78606FF06D03FB603C
:103D30007B6801211846FAF75DFEF860FB68002BEE
:103D400013D17B680C3301211846FAF753FEF86053
:103D5000FB68002B09D17B68183300211846FAF75D
:103D600049FEF860FB68002B00BFFB68184610375F
:103D7000BD4680BD80B582B000AF78607B681833E7
:103D800000211846FBF7BCFD0346002B0CBF0123A6
:103D90000023DBB218460837BD4680BD80B582B02F
:103DA00000AF786039607B683A6811461846FBF7C7
:103DB0000CFD0346002B19D17B6803F10C023B6814
:103DC0000C3319461046FBF700FD0346002B0DD1BE
:103DD0007B6803F118023B68183319461046FBF75D
:103DE000F4FC0346002B01D1002300E0024B1846EF
:103DF0000837BD4680BD00BF80B0FFFF80B586B0EC
:103E000000AFF860B9607A603B606FF06D037B6172
:103E1000FB687A68B9681846FAF760FF78617B69D1
:103E2000002B14D1FB680C333A68B9681846FAF7CE
:103E300055FF78617B69002B09D1FB68183301219C
:103E40001846FAF7D7FD78617B69002B00BF7B69C4
:103E500018461837BD4680BD80B586B000AFF86003
:103E6000B9607A603B603D4B7B61FB680433184668
:103E7000FAF7ECFE3861F868FFF710FE0346012BF5
:103E800065D1BB68183300211846FBF739FD03469E
:103E9000002B0CD17B6A002B01D1314B59E03B6ADE
:103EA00000221A703B6801221A60002351E07B68EF
:103EB000002B28D13B695B005A1C3B681A603B68A9
:103EC0001B687A6A9A4201D2254B42E03B6A04227F
:103ED0001A70B8683B6A01333A691946FBF74FFA22
:103EE00078617B69002B33D1BB6803F10C003B691F
:103EF00001333A6A13443A691946FBF740FA78618C
:103F00007B69002B24E07B68012B20D13B695A1C84
:103F10003B681A603B681B687A6A9A4201D2104B70
:103F200017E0BB680C3300211846FAF791FD0346F1
:103F3000DBB20233DAB23B6A1A70B8683B6A01330B
:103F40003A691946FBF71BFA78617B69002B00BFC1
:103F50007B6918461837BD4680BD00BF80B1FFFFA2
:103F600000B1FFFF80B586B000AFF860B9607A603D
:103F70003B602C4B7B613B68002B01D12A4B4CE012
:103F8000FB6804331846FAF761FE3861F868FFF7FA
:103F900085FD0346012B3ED17B681B78002B09D1A0
:103FA0003B68012B04D1B868FFF7BBFE034634E041
:103FB0001D4B32E07B681B78042B01D0194B2CE0A1
:103FC0003B695B0001333A689A4201D0164B24E00A
:103FD000B8687B6801333A691946FBF734F97861B0
:103FE0007B69002B18D1BB6803F10C003B690133DE
:103FF0007A6813443A691946FBF725F978617B69B9
:10400000002B09D1BB68183301211846FAF7F2FCDE
:1040100078617B69002B00BF7B6918461837BD4665
:1040200080BD00BF80B1FFFF80B0FFFF80B586B0CC
:1040300000AFF860B9607A603B603B68012B01D843
:10404000134B20E07B681B68591C7A6811601B7851
:10405000FB75FB7D002B04D0FA7D3B68013B9A4247
:1040600001D90B4B0FE07B681B683B617B681A68CA
:10407000FB7D1A447B681A60FB7D3A69B968F86871
:10408000FFF770FF034618461837BD4680BD00BFD6
:1040900080B0FFFF80B588B002AFF860B9607A6089
